:020000040000FA
:10000000003400205DAD0000EF20010049AD00008C
:1000100049AD000049AD000049AD000000000000FE
:100020000000000000000000000000004DAF0000D4
:1000300049AD00000000000019AF000049AD00000C
:1000400001B10000F12B010001B1000001B100007D
:1000500001B1000001B1000001B1000001B10000D8
:10006000A72B010001B1000001B10000DB2B010052
:1000700001B1000001B1000001B1000001B10000B8
:1000800001B1000001B1000001B1000001B10000A8
:1000900001B1000001B1000001B1000001B1000098
:1000A00001B1000001B1000053B94AB9002908BFED
:1000B00000281CBF4FF0FF314FF0FF3000F00CB8AC
:1000C000ADF1080C6DE904CE07F00EF9DDF804E09F
:1000D000DDE9022304B07047704700BF1FB50B4B2A
:1000E00001934FF49473ADF8083008238DF80A306B
:1000F00083788DF80B3001A9FF2301208DF80C3097
:1001000000F06CFB05B05DF804FB00BF0D8A000039
:100110001FB572B6184B1D68E5B9BFF34F8F17496D
:10012000174BCA6802F4E0621343CB60BFF34F8FF2
:1001300000BFFDE7B2FBF6F2DCB20133002AF9D1D1
:1001400004F110036B4403F80C2C0A2234B901A803
:10015000A847E2E7024600230A26EDE7631E04AE45
:10016000DCB256FA83F3B0FBF2F602FB1600303035
:1001700003F80C0C3046E9E76005002000ED00E0D4
:100180000400FA0507B50C4B1A7B8DF80120DA7ACA
:100190008DF8002068469A7A5B7AADF80420ADF8B5
:1001A000023001F0F5F918B1DE210320FFF7B0FFAE
:1001B00003B05DF804FB00BF600500202DE9F341AA
:1001C00004460D4671B91B4B93F82A3053B90121EF
:1001D00001A80193FFF7F2FF20B94FF40371032048
:1001E000FFF796FF2368144FDFF850800733002D88
:1001F00023F0070323600CBF2046002000F0CAFA5A
:10020000002657F8043B0BB1404698470136032EB1
:10021000F7D100F033FB031E09DB206818440DB151
:10022000002804DB2060012002B0BDE8F08100203E
:10023000FAE700BF600500204800002064050020A8
:1002400037B5B0FA80F101900546490901A8FFF7DA
:10025000B5FF18B96FF00B0003B030BD2A4CA17A7E
:10026000607A237BE27A0331033007F0F8FC011E49
:10027000F0DB0198237962790330134420F0030006
:10028000002D019003FB01F108BF002000F038FCB5
:10029000019B0DB9C342DDD41844A3790190C3B1C9
:1002A000E17C1944E3791944FF29D3DC033020F0C1
:1002B0000300002D0190E28908BF0020C9B200F0C0
:1002C00075FC031EC6DB019818440DB90028C1DB7C
:1002D0000190217C99B1A3798BB10198073020F06E
:1002E0000700002D019008BF002001F089FE031EC9
:1002F000B0DB019818440DB90028ABDB01900DB9B3
:100300000198A9E70020A7E76005002038B504465A
:1003100090B306F07BFB10B94FF0FF3038BD08F00A
:10032000D9FDB0F5FA7FF7D8164D17482C6000F0CC
:10033000B3F9164B0024C3E900449C6026222146F1
:10034000281D85F82A4006F063FF01236B71AB710D
:100350001B236B7240F21B336B8102232B731F2311
:10036000EB8108232B74EFF3108572B600F0F4FCD8
:100370002DB962B62846D1E76FF01500CEE72046CA
:10038000CCE700BF60050020850100004800002088
:1003900010B500283CD1214C94F82A30032B34D0DE
:1003A00059B1002A37D00239052931D8DFE801F0E8
:1003B000031422302528137863710020FFF740FFD3
:1003C0000028B7BF0123022384F82A306FF00B0006
:1003D000A8BF84F82A3010BD9378E3B1D378D3B1A5
:1003E00013781A2B17D953781A2B14D91368C4F819
:1003F0000930E2E71378A371DFE71388E381DCE7D4
:100400001388FF2B07D82374D7E74FF0FF30E2E7BC
:100410006FF02C00DFE76FF01500DCE760050020CF
:10042000F8B50D46074660B359B311F0070428D15B
:10043000154E96F82A30012B02D16FF00B00F8BD53
:10044000032B02D14FF0FF30F9E700F069F80028E4
:10045000F8D02846FFF7F4FE0028EEDB384606F019
:1004600049FC86F82B0008F07BFC96F82B0021460F
:1004700001F0D2F8FFF786FE032386F82A302046E3
:10048000DDE76FF01500DAE76005002010B5084CD5
:1004900094F82A30032B05D101F0D6F894F82B00FC
:1004A00006F044FC07F0D1FC002084F82A0010BDBF
:1004B0006005002050B1074B03F1140253F8041BF0
:1004C00040F8041B9342F9D1002070476FF01500EB
:1004D000704700BFFA44010010B5074B93F82A405B
:1004E00034B901F07FF8054B054A5A60204610BD2B
:1004F0004FF0FF30FBE700BF600500204800002000
:10050000DD000000024B02681A600020704700BF47
:100510008C050020014B1B68184700BF8C0500208C
:10052000024B1868003818BF012070478C05002066
:100530002DE9F743294E0446071D2848376001F08E
:10054000A1FC0228054607D12449204607F01CF8E3
:10055000284603B0BDE8F083042838D13378072B50
:1005600018D13E2000F050F878B9F378327901A91B
:1005700043EA02236846ADF8003007F0B5FA0028D8
:10058000DBD053210820FFF7C3FD052000F074F8ED
:100590000028EAD03146204607F05BF8B0F5817FAD
:1005A00001D37221EEE70028C7D094F8008094F8B8
:1005B0000290404600F028F80028BED0B8F13E0F67
:1005C000C6D1484600F058F80028C1D1B5E7082840
:1005D000BED10249204607F006F8B9E79005002091
:1005E000074B4FF0FF3141F6FF72C3E90012054996
:1005F0000022C1E900221F21C3E90212704700BF97
:1006000000000020D40500203F280CD801380B4BF7
:10061000C0F3421200F01F0053F8223023FA00F01A
:1006200000F001007047FF2806D04038C0F34212A6
:10063000034B00F01F00EFE701207047000000208F
:10064000D40500200146074B006849681A4603C2DA
:1006500040F48C221A6041F0107242F4FF625A603A
:10066000704700BF000000200246024B006851683E
:1006700003C37047080000200138064BC0F3421244
:1006800003EB820300F01F009B6823FA00F000F0E8
:100690000100704700000020014B1860704700BF48
:1006A000DC05002010B5FFF79BFF07F0AAFD034B08
:1006B0001B68044603B19847204610BDDC050020A6
:1006C0000B880288F0B5C3F30E049EB204F1140344
:1006D000C57CC35A02352A442B4497B213FA82F3DD
:1006E000013B4288B3FBF7F313FB07439BB29A42EB
:1006F000044A93BF22EA0603324013439BB20B80A5
:10070000F0BD00BF0080FFFF4A1E062A08B5034661
:10071000084604D84FF4D1711520FFF7F9FC094AB7
:10072000914202D940F2A311F6E711B903B1196061
:1007300008BD2BB11B680022C3E901211A1D1A60F4
:100740000430F5E7FAFFFF7F10B5114B00EB4104D1
:100750001A786389B3FBF2F303FB0223013A1A44CC
:10076000B2F5706F027928BF00231A448378B2FB78
:10077000F3F0194403FB1020091AB1FBF3F003FB5B
:10078000101313446FEA43436FEA5343638110BD70
:10079000E005002010B5104BC8B15A78022A04D0E9
:1007A00040F22B111720FFF7B3FC03225A700268A6
:1007B00012F0070102D04FF49871F3E75C685A60B9
:1007C00022440260C3E903119A60596110BD0122FD
:1007D000C3E901005A70F9E7E00500202DE9F04176
:1007E000254E96F801E00EF0FD0CBCF1010F04D08F
:1007F00040F245111720FFF78BFC91F80680B8F105
:10080000080F02D940F24711F4E7CF798FB345467C
:10081000022D726838BF02257B1D5C0002EB43038A
:100820006A1E13446D422B408D884544013DC8F13A
:1008300000022A40B2F5803F02D34FF4A971D9E7F4
:10084000BEF1030F12D106EB80001C1BC56815B169
:1008500040F25711CEE7C460A770228084F803C02D
:10086000087A09682071080CE080218107FB0233B7
:100870007360BDE8F08100BFE00500202DE9F0477E
:10088000364C6378012B65D0032B04D040F26711FE
:100890001720FFF73DFCD4E901329A4202D04FF411
:1008A000B571F5E72546002305F80C3B1E460222EC
:1008B000994655F82200013A58B190F804808178A1
:1008C000B8F1FF0F2FD180F804908E423CBFCEB21A
:1008D0000123511CEDD103B12670022640F6FF69B9
:1008E00055F826709FBB013EFAD2042363700020A6
:1008F000BDE8F08755F82CE0BEF1000F06D09EF859
:1009000004A0C24504BF9EF802E077440CF1FF3C0E
:10091000BCF1000FEEDA3944FF2907D903B1267084
:100920004FF48371B4E794460027F1E70771CCE7F1
:1009300007EB41033846A3F80A90FFF705FF08F1DB
:100940000108BB785FFA88F18B42F1D8CBE74FF012
:100950000008F6E7022360686370C9E7E00500203D
:10096000F8B54FF6FF730380184B03EB8103054680
:10097000D868B8B186780379B3FBF6F206FB123378
:10098000DBB219460A1D00EB4202B2F9027054882C
:10099000002F09DB0131B1FBF6F206FB1211C9B2DF
:1009A0008B42EFD10020F8BDFF29FBD0C4F30E032A
:1009B000C4782B8024B94FF4D9711720FFF7A8FB16
:1009C0005380BDE8F84007F029B900BFE0050020DA
:1009D0001D4B03EB810370B5DC68054644B303048B
:1009E00004D54FF4E0711720FFF792FB0146204633
:1009F00007F0F6F8FF28014604D02046BDE8704015
:100A000007F00CB9A078B5FBF0F300FB1353DBB291
:100A100019460A1D04EB4206B6F90260002E09DBF6
:100A20000131B1FBF0F200FB1211C9B28B42F0D1DF
:100A3000002070BDFF29FBD08B4204EB42021CBF9B
:100A40000023E3705580D8E7E0050020094B03EB55
:100A5000810310B5DC680146204607F0C1F8FF2885
:100A6000014604D02046BDE8104007F0D7B800206A
:100A700010BD00BFE0050020F8B5104B03EB81036B
:100A80000746DC680146204607F0AAF8FF2805461D
:100A900011D0E688238953EA064606D0014620464F
:100AA00007F0BCF801463846B04720462946FFF714
:100AB0004BFE0020F8BD0520FCE700BFE00500204C
:100AC00038B50E4B827903EB82030446D86808B927
:100AD000052038BD8278E1799142F9D24B1CE3714F
:100AE00000EB41035D89B3F90A30002BF3DBA580ED
:100AF00007F094F820600020EBE700BFE00500203D
:100B000070B5044610F003000E4603D04F211820A4
:100B1000FFF7FEFAFFF7F8FD054624B1034831461A
:100B20000460FFF7F1FD284670BD00BFF805002006
:100B30002DE9F14FDFF870B09DF828A09DF82C90BA
:100B40001E46DBF8003007460D4690461BB9612172
:100B50001820FFF7DDFA52460921404606F0EDFF66
:100B60004A4684B20921304606F0E7FF14FA80F1C4
:100B7000DBF8000007F010F8386018B9286001B001
:100B8000BDE8F08F04442C60386853464146092282
:100B900006F0B2FF28684B460922314601B0BDE895
:100BA000F04F06F0A9BF00BFF80500201F2AF8B5D6
:100BB000044613460ED89200033222F00303B3F525
:100BC000803F2DD2184DACB1A00710D05F21092075
:100BD000FFF79EFAFF2B4FEA420204D9FF339A42F5
:100BE000A8BF1A46E8E77C2AB8BF7C22E4E7297050
:100BF0006C602B8122F0030201EB81031204D80008
:100C000001276B68120C0025EEB28E4200D3F8BDAE
:100C100014B126181F705E60104401352833F3E7C5
:100C20004FF0FF30F3E700BFFC05002038B5144A51
:100C3000147853680021C8B2844203D8AB2109203C
:100C4000FFF766FA1846013105782833002DF2D0F7
:100C50000021817001241289447044688161C1615E
:100C6000920800F12001051D21F8022B994245F858
:100C7000044B1444F8D100234361037038BD00BF16
:100C8000FC0500202DE9F8434B7880460C4602F025
:100C9000040602F0FB07D3B1DFB12E4BD4F8049069
:100CA0001D89B7BB01236370AD08A761E76104F13B
:100CB00020034A46211D04F1280023F8025B9842D4
:100CC00041F8042B2A44F8D10023636101E0002F8E
:100CD000E3D0FF23A370002E18BF0226A3191B7DAB
:100CE000032B03D1022F1CBF0136F6B2A319012238
:100CF0001A7506F10C0204EB8606002324F8123064
:100D00007268A370C8F80020A8F804304046BDE817
:100D1000F883002114226170A01806F079FAB5F565
:100D2000FF7F0FD26B08ED1AADB209EB0502C4F8D4
:100D300004902584A2606384C4F80C90A584226189
:100D4000E384C6E7B5F5EE6F4FF0FF03EBD940F251
:100D50007265EAE7FC050020134B012200214FF0E9
:100D6000FF309A60C3F80012C3F80803C3F80015F7
:100D7000C3F804259A60C3F80803C3F80015C3F844
:100D800004250A490A4A03F580334FF40040C3F8AA
:100D90000825C1F88000BFF34F8FBFF36F8FC1F8F4
:100DA0008001C3F80825704700F0004000E100E032
:100DB0000000F63F014B1876704700BF0806002080
:100DC0002DE9F04104460D46164690F8F83003F040
:100DD000FF071BB10C273846BDE8F08101464548A6
:100DE00004F010FD20288046F4D05822394604F142
:100DF000D00006F00DFA84F8D080C4F8D450FF2358
:100E000084F8F83035B101F085F800F007000130C2
:100E100085F8E40102234FF00008A4F8083184F8B3
:100E2000008108F059F800F19E05204607F0D6FE33
:100E3000ADB2014670B307F05BFC00F5CD6189B23D
:100E4000304608F03FF83044C4F8040108F064F874
:100E5000281841F10001C4E94401012084F8D800B8
:100E6000A4F8268007F078FFDB3E361AC4F8DC6071
:100E70004FF0FF326FF00043C4E9462394F8D000EE
:100E800004F5807104F004FE48BB40F2C11130202B
:100E9000FFF73EF9204607F0C3FDDFF85C80DB304A
:100EA000C4F80401B8F8080048B1E08C38B101F08A
:100EB00031F8B8F80830B0FBF3F202FB1300054438
:100EC00008F02AF82D1841F10001C4E94451002E20
:100ED000CED0751941F10001C4E94651CEE7D4E9FD
:100EE00044230021C4E93A23C4E93C23204607F007
:100EF00092FE70E79B7E0000C4060020F0B5002340
:100F000085B0CDE9003301238DF806306846FFF740
:100F1000D7FD70B11B4E0123B3720027CDE90277D4
:100F200002A8FFF7CDFD0546A8B10023B37205B0B6
:100F3000F0BD009807F06AF8E8E790F80B0205F0BA
:100F400045FB94F80B0284F8F45104F087FC20234D
:100F500084F80B32E2E7029B002BE1D093F80B22DE
:100F6000202ADDD018884FF6FF739842DDD029463D
:100F7000FFF76CFD04460028DFD140F22B11302032
:100F8000FFF7C6F8C4060020054B00220121DA72E3
:100F900019709A7242F210721A81FFF7AFBF00BF48
:100FA000C4060020014BD872704700BFC406002061
:100FB000014B1881704700BFC4060020F0B5070C34
:100FC000A7F5AA42144B543A012A03EA90231FD9E9
:100FD00027F4004042F6AA22801A18BF01200022FE
:100FE000162116461F2487EA060562EA0505013523
:100FF00010D0DD03ADB245EA5606E503ADB20139C6
:1010000045EA52024FEA53034FEA5404EBD1F0BDD4
:101010000020E4E70020FAE7E0FF3F0010B50121DF
:101020000020FFF713FD044670B90121FFF7D0FC43
:10103000044620B940F245313920FFF769F8034BE7
:1010400093F9001007F0B0FC204610BDD406002034
:1010500008B507F05DFB00F07DFC00F017FB07F022
:1010600032FC00F0F3FD00F0DDFF00F007FE084B5E
:101070001B224FF4A4715A809980064B06499A802E
:1010800000221960DA825A821A835A7408BD00BF9E
:10109000D4060020FC0A002003021B00044B41F68A
:1010A0004C52C3E902221B221A74FFF7D1BF00BFC2
:1010B000FC0A00202DE9FF41344DAB68044640F89E
:1010C000303F06F0DAFF064600F0D0FA2B7C84F8B9
:1010D00038302F4B668710F0200F1B681DBFAA8881
:1010E0006988A4F85A101B2208BFA4F85A20A4F853
:1010F0005C201BB194F96C1020889847AE7CEF7C83
:10110000B5F8148041F64C53A36116B900F0B4FA57
:10111000064677BB00F0B0FA074666B358B303A99A
:1011200020468DF80C608DF80D70ADF80E8007F03C
:101130003CFBAB886A886978019103332978009178
:1011400003329BB292B204F1140104F11000FFF7D4
:10115000EFFC236913B940F2D65114E0636913B967
:1011600040F2D7510FE0002004B0BDE8F081092023
:10117000FAE7002ED3D120880021FFF77DFC00285C
:10118000F5D040F2C1513920FEF7C2FFFC0A002021
:1011900054000020F7B505460E4607F03CFC002839
:1011A00073D0284607F01AFD40B1B6F80130013B74
:1011B0007F2B03D91224204603B0F0BD284607F048
:1011C00011FD08B90C24F6E7284606F0A1FF002817
:1011D000F8D1284607F0D9FB04460028F2D128466A
:1011E00001F088FA0028E5D0B6F80170F17842F2F3
:1011F000107328465F4307F0DCFC284607F0E6FC46
:10120000014658B93A462846FFF7DAFD0446002859
:10121000D1D041F687113920FEF77AFF21460DF132
:101220000600FFF79DFB064668B3214600F086FCEA
:10123000BDF8063033802846314607F0DDFC2846ED
:1012400007F0D6FC98B9284607F0D4FC0146304692
:10125000FFF730FF04460028ADD13A463146284614
:10126000FFF7AEFD044620B141F6AA11D3E70121F4
:10127000EDE7074B9B68002B9DD0024606F5957164
:101280003046984797E70D2495E7422493E700BF3F
:10129000D4060020F7B5044610460F461E4600F05F
:1012A000C1FC06F06AFF05462CB1022C16D01224B0
:1012B000204603B0F0BD67B9FFF7B0FE18B329466A
:1012C00007F07FFC0EB3284600F09AFC0024307033
:1012D000EEE701213846FFF7B9FBEFE769463846EC
:1012E00007F056FA0028E3D1094B1B681BB9019B94
:1012F00083F86C50E6E701222946684698473A2869
:101300000446F4D1D4E74224D2E73446D0E700BF04
:1013100058000020034B5A8802801B7883700020FD
:10132000704700BFFC0A0020F0B50778EF2F85B0AA
:1013300004460D4603D91225284605B0F0BDB0F885
:101340000130ADF80C309DF90C209DF80C30002ACE
:10135000F1DB9DF80D209107EDD1DA063FD49E0612
:1013600003F0030238D5002AE5D11807E3D46378E7
:10137000190711D42179E278E07942EA01226179F2
:1013800042EA0142A17941EA0021207A41EA004182
:101390008A42D0D81F2ACED9627A013A062ACAD800
:1013A000A27A032AC7D813F0040102D1023A012A13
:1013B00003D8E27A012ABED811B9A27C032ABAD88E
:1013C00013F01001227D19D0012AB4D1227E012A06
:1013D000B1D8B1B91125AFE7032AC6D1ABE713F0F5
:1013E000600FA8D103F00F0203F00703052BBED056
:1013F000931E012BBBD9002A9DD1B8E7022AE5D163
:1014000099E7DA071FD46378227D03F018010829D1
:101410001ED1022ADED11B0709D4E279A37943EA5F
:101420000223227A43EA0243B3F5804FD2D8BFB2F7
:1014300001213846FFF70AFB064678B106F068FE40
:10144000B8B10C2578E700F0E1F80028DBD1C1E75E
:10145000022AE0D0A27E002ADDD0BBE70121384677
:10146000FFF7B6FA064650B3164B93F9001007F093
:101470009BFA304607F0A7FB21462870E0743046FF
:1014800007F0EAFA637E0546002B3FF455AF0028CB
:101490007FF452AF316B02466846FFF7F3FB306BC7
:1014A0002A46012106F023FC316B68460422FFF72F
:1014B000E9FB306B2A46294606F019FC3CE7072574
:1014C0003AE700BFD406002070B50579042D8AB034
:1014D000034658D84488B4F5804F54D82B48465D0D
:1014E000284400214279857AC07BADF8041042F08F
:1014F000100242EA460242EA850242EAC00202F0D3
:101500001F028DF80420BDF80420ADF80D201A88C4
:101510008DF80F208DF81240120A240A8DF8111050
:101520008DF814108DF810208DF813405A7B8DF82B
:1015300015205A798DF816209A79D3F807008DF87E
:101540001720B3F80B209B7B8DF81E307F238DF87E
:101550001F3001238DF80C1006908DF82110ADF886
:101560001C208DF820308DF8223003A88DF8231030
:101570008DF824108DF825108DF8261001A9FFF79D
:10158000D3FE0AB070BD1220FBE700BF903B010004
:101590000278034672B1427862B142881A2A09D9A8
:1015A00082881A2A06D9044A006810609B889380B2
:1015B0000020704712207047FC0A0020024B02688E
:1015C0009A600020704700BFFC0A002008B501F0B7
:1015D00089F8FFF7D9FCBDE80840014801F06CB874
:1015E000E006002010B5064C064904F5027007F02D
:1015F00061F804F503700449BDE8104007F05AB8DB
:10160000E00600205C00002064000020014B93F8FD
:1016100002017047E006002010B5074C00F02CFCDA
:10162000D4F8080207F03EF8FFF738FD00F08AFC16
:10163000012384F8143210BDE0060020014B93F81A
:1016400014027047E006002010B5074CD4F80C02D5
:1016500007F028F8D4F8100207F024F8FFF7F8FC98
:10166000002384F8143210BDE0060020014BD3E9BA
:101670000001704710000020034B1868C0F30020E1
:10168000400040F0010070471000002008B507F04E
:1016900021FC084A002332F82310814205D302EBD3
:1016A00083039B78044A137008BD01330C2BF2D1DD
:1016B0000023F7E7A43B0100F5080020054B9A8CB6
:1016C000824201BF002283F822204FF6FF729A84E3
:1016D000704700BFF608002050B90A4A134601209F
:1016E00003F8010B0868C2F801008A889A807047E5
:1016F000012805D1034B0A689A608A88D8719A81BB
:10170000704700BF2009002048B90A4B187880B103
:10171000D3F80120B3F805300A608B8070470128A8
:1017200006D1044BD87920B19A680A609B89F4E706
:10173000002070472009002020B9054B187800F0E0
:101740000100704701280ABF014B0020D879F6E755
:1017500020090020F7B500228B888DF80600ADF82F
:10176000043008680C4B8DF80720019D1C78014659
:1017700003F5AC73D0B2844201D8082009E0D3E964
:101780000076AE4208BF8F4203F1080302F1010266
:10179000F0D103B0F0BD00BF3009002030B5094BD7
:1017A00001465C78002203F58173D0B2844201D8EF
:1017B000082005E013F8015B8D4202F10102F4D12B
:1017C00030BD00BF30090020F0B5254D95F8984197
:1017D00089B0224605F29911684605F0A1FC214620
:1017E000684606F0B4FF0446B8B300EB4001C9B246
:1017F00002A8FEF78FFE601E95F8A161C0B2012419
:1018000095F8982105E0731CB3FBF2F102FB11334C
:10181000DEB206F120030DEB030111F8203C002B92
:10182000F1D100EB400220326A4406EB46032B4420
:1018300012F8187C83F8A27112F8177C12F8162C93
:1018400083F8A37183F8A42101F8204C0138AB1967
:10185000C0B2FF2883F89941D2D109B0F0BD00BFD2
:101860003009002070B5064688B00C46002A4FD0DB
:101870002A4A92F8A131D01890F8991121B94FF461
:1018800080712820FEF744FC03EB4301114401332F
:1018900091F8A251E57091F8A35191F8A4116171EA
:1018A0000021257180F8991192F89811B3FBF1F09D
:1018B00001FB103382F8A13192F8C23123B91849E3
:1018C00002F5DD7007F004F8657905F03F0545F095
:1018D000400565710D220021684605F099FCE3780A
:1018E0008DF80F3023798DF80E3004AA0423694651
:1018F00030468DF80D5005F0FDF89DF81F3023702F
:101900009DF81E3063709DF81D30A37008B070BD47
:1019100003216018FEF7FEFDD6E700BF3009002066
:10192000C9170000044B5A78824286BF1B1893F8EF
:101930004A010020704700BF30090020044B5A784C
:10194000824286BF1B1893F842010020704700BFF7
:1019500030090020064B00224FF461711A8083F891
:10196000C32183F8C421A3F8C61183F8C2217047AC
:1019700030090020014B83F8C40170473009002072
:10198000014BB3F8C60170473009002030B50A4B4F
:101990005C7884420ED9184490F802012B3003EB96
:1019A000C004A5790D7053F830001060A3889380AF
:1019B000012030BD0020FCE7300900200246074826
:1019C00010B590F8C34124B1417821B1023001F043
:1019D00065F8204610BD0C46FBE700BF300900202B
:1019E0002DE9F74F2F4C9A4663788342804689460B
:1019F00056D9231893F8425185F00105F9B193F8AF
:101A00004A31E3B945F002070135BAF1000F18D1A8
:101A1000FA070AD5062101FB084104EB08105246DB
:101A200001F585718230FFF71DFFBB0734D504EB4C
:101A30000810524649460230FFF714FF2CE02F46AB
:101A4000E3E794F8A1614FF0010B002DE0D0A3195A
:101A5000019393F8991199B90092DAB100F042FA22
:101A600006EB46012144019B81F8A2014FEA102CAC
:101A7000009A81F8A3C1000C81F8A40183F899B100
:101A800094F898310136B6FBF3F103FB1166F6B218
:101A9000013DDAE747F00407384603B0BDE8F08FB0
:101AA0000027F9E730090020074B5A78824209D90C
:101AB0001A1892F842212AB9062202FB003000F5DA
:101AC000857070470020704730090020064B5A7817
:101AD000824281BF1B1893F83A01B0FA80F04009A6
:101AE00098BF0020704700BF3009002030B50024A7
:101AF000A0F84240B0F8464042F210754C43B4FBA7
:101B0000F2F4A0F84640541E05FB0343B3FBF2F386
:101B1000A0F84430084BB3FBF2F30133A0F84A308D
:101B2000838F05FB0344436BB4FBF2F45943846396
:101B3000B1FBF2F2426330BD005A620270B5044656
:101B40000D4649BB4FF4207205F062FB012384F877
:101B500096306FF0360384F8E330042384F8E430E1
:101B60006FF03B0384F8E5306F2384F8E6306FF0C4
:101B70003F0384F8E7302B2384F8E230FE2384F817
:101B80001E317F2384F88D30202384F8E85084F8B8
:101B9000E95084F80B3270BD012922D10023A0F84E
:101BA000CC3180F8C331154B82691344B3FBF2F397
:101BB000C0F8B83040F6B833A0F8BC301146438CBA
:101BC0008030FFF793FF05F065F930B1E069FFF76A
:101BD000F5F910B984F8AF51DDE7002384F8AF318F
:101BE000D9E70229D7D1B0F86232D0F85C228169F6
:101BF000BDE870408030FFF779BF00BF7FC3C901E7
:101C0000074B93F900301844142804DC10F17F0FBF
:101C100003DB40B27047142070476FF07E007047BE
:101C2000F80A0020084B1B785B4240FA83F0142826
:101C300004DC10F17F0F03DB40B2704714207047C3
:101C40006FF07E00704700BFF80A0020024B0022B0
:101C50001A705A70704700BFF80A0020054BFF2227
:101C60001A70054A016811600179117100221A7019
:101C7000704700BFFA0A00201800002007B5064B85
:101C8000186800901B798DF804306846FFF7E6FF6E
:101C900003B05DF804FB00BF0F45010010B521B98A
:101CA00040F25B211020FEF733FA4A600B72EFF32B
:101CB000108472B6031D0B6042681AB1127A012AB1
:101CC00008BF036003681960016004B962B6034B82
:101CD000BDE81040587805F039B800BF180B002057
:101CE0002DE9F74306460D464FF0050800274FF053
:101CF00003092B693BB11B7A2BB12C699CB90020DD
:101D000003B0BDE8F0836C68237A012BF7D0EFF3C2
:101D1000108372B66A6812686A6003B962B6237A81
:101D2000002BE6D02C61237ADBB284F80880013BDB
:101D30000B2B66D8DFE803F0620620345F653D6553
:101D400065656552636823B940F2C7111020FEF73C
:101D5000DFF92046314698470420EFF3108372B62E
:101D6000227A052AD1B201D0002953D127722F61DE
:101D7000002B4BD162B649E0636813B94FF4E871A8
:101D8000E4E73146204698470346C3F30723012B77
:101D9000ADF80400C0B237D0022BDED12F6135E0A0
:101DA000636813B94FF4ED71D0E7204698470020DF
:101DB000D3E763680BB9DA21C8E70B2232701988C0
:101DC000A6F80310012200241869B2707271B47170
:101DD000214605F0C5FE2C61042091E7606810B92A
:101DE00040F20521B2E70E4B31461B6898470023AD
:101DF0002B61022084E740F20E21A7E740F2112177
:101E0000A4E74FF40571A1E784F8089000283FF497
:101E100070AF75E7002B7FF46CAF62B669E700BF67
:101E20006C00002070B5134C1426231D324600218F
:101E3000184605F0EDF90346012525740021043309
:101E4000324604F11800C4E9013305F0E1F984F8E1
:101E5000245004F11C03C4E906330023E362236326
:101E600084F83430C4F83530C4F8393084F83D3063
:101E700070BD00BF180B0020014B5870FFF7D2BF98
:101E8000180B002038B50B4D05F118010446FFF77B
:101E900027FF70B9AB681B7A0C2B04D1064BDA7D97
:101EA0000AB11B8B2BB120460449BDE83840FFF72F
:101EB00017BF38BD180B0020FC0A00201C0B0020A7
:101EC00010B51346027A22B14FF42D711020FEF79F
:101ED0001FF90A46BDE8104001460148FFF7DEBE83
:101EE0001C0B0020094AD2E90003434083EAB011E9
:101EF00081EA43214FEAF3435360054B1160584395
:101F00004FEAF06000EB8000704700BF580B0020E4
:101F1000BB79379E094AD2E90003434083EAB011F6
:101F200081EA43214FEAF3435360054B1160584364
:101F30004FEAF06000EB8000704700BF20000020F7
:101F4000BB79379E10B50A4C09480821FEF7E2FA22
:101F5000D4E900231343F7D0064CFFF7DBFF2060E2
:101F6000FFF7D8FF236860600343F6D010BD00BFC1
:101F700020000020580B0020F0B5204E0546307898
:101F80000024147080B1431E7768DBB2181B01284F
:101F90000BDC07EBC40057F834604068884208BF88
:101FA000AE4212D114700120F0BD1819461007EB93
:101FB000C60E57F836C0DEF80460AC45C0F34700E3
:101FC0008E412CBF03460446E0E7B54271EB0000AA
:101FD00002D214700020E7E707EBC30057F8334044
:101FE0004068884208BFAC4201D11370DBE7A542CC
:101FF000814128BF01331370ECE700BF800B002044
:1020000010F0070208B503D063214820FEF780F8DE
:1020100018B1034B197258601A70C80008BD00BF90
:10202000800B0020014B00221A707047800B0020AB
:10203000014B187A704700BF800B00202DE9D34375
:1020400006F053FC0DF1070207460E46FFF794FF1A
:1020500098B9114C2278237A93420ED061681346C6
:102060006FF0604E9DF80700984209D301EBC00362
:10207000C3E9007601322270012002B0BDE8D083AE
:1020800003EB0E0001EBC000D0E90089013BC0E981
:102090000289DBB2E6E700BF800B002037B506F00F
:1020A00024FC0DF10702FFF767FF0446A0B10C4ABC
:1020B0009DF8070013785568013BDBB213701A1ABC
:1020C000D2B2411CD200834238BF002205EBC101CD
:1020D00005EBC00004F0DEFF204603B030BD00BFBA
:1020E000800B002038B5074D044600F151012868E7
:1020F00006F05FFB94F850102868BDE8384006F001
:1021000066BB00BFA00B0020F8B504460E466588EC
:10211000407F15F00401134618BF04F15F013246F9
:10212000FFF75EFCC20705460BD5012384F850304B
:10213000607FFFF7B9FC0368C4F851308388A4F8C6
:102140005530AB070CD5094E0127306884F85E7016
:1021500004F15F0106F034FB3068394606F040FBBD
:1021600085F00400C0F38000F8BD00BFA00B002084
:1021700038B5C38D0E4D0133C385AB7C04462BB1FE
:1021800001F0DEF900F0BCFC0023AB7400232B71DE
:1021900094F879302BB101212046BDE8384005F094
:1021A00078BF637C13B1E28D9A42F4D20021F3E749
:1021B000A00B002010B5094C2379012B02D0237904
:1021C000022B05D1A37C1BB101F0BAF900F098FCF9
:1021D000E069BDE81040FFF7CBBF00BFA00B0020B7
:1021E00070B5294C2379012B07D02379022B04D019
:1021F00040F63C412D20FDF78BFFA0B90125A37CC3
:102200001BB101F09DF900F07BFC002D3AD0E06994
:1022100005F021FF002830D001F0B6F8236ABDE8B0
:1022200070409B6818472168E26911F8095B02F168
:102230005103E80992F8502006F06BFA0028DDD02F
:102240002068002106F0F1FA0028D7D02379E06950
:10225000012B05D02379022B02D040F61541C9E7A6
:102260002379226A03F180435269013B05F00F0193
:1022700052F8233098470546C1E7E069BDE8704051
:10228000FFF776BF70BD00BFA00B0020074A0346D2
:10229000D06903B909B9FFF76BBF1379126A03F16B
:1022A00080431269033B52F823301847A00B0020EB
:1022B0002DE9F043032985B0054690467BD090F880
:1022C00078300529DBB202D14288D60760D5002BD1
:1022D0005ED10127DFF8E89099F81260B6B106F0F8
:1022E0004DFA082888F8000014D002AA0DF1070161
:1022F000FFF74CFB20B940F685612D20FDF708FF64
:102300009DF8070002A906F0FCFA064698F800308E
:10231000082B08D1D9F8001011F8030BC0F3801076
:1023200006F0EFFA0646D9F8001095F8572011F894
:10233000030B05F15803C0F3801006F0EAF9D9F851
:102340000010044611F8030BC0F3801006F00CFADD
:102350008146FFF7BBFB014640B1B9F1080F1BD026
:102360004846FFF7DFFA80F00101C9B298F8000093
:10237000082815D094B96B7F1C1A604260416B88A5
:102380005A0706D421B996B9EB7C93B1BB4210D061
:10239000002005B0BDE8F0830021E7E70120EEE76B
:1023A00014B181F00104E4B204F00100E7E7304623
:1023B000EFE70120EDE743889B07E9D5022789E78E
:1023C000A00B0020032973B5044604D0052952D080
:1023D000012002B070BD08230DF107028DF807300F
:1023E000FFF766FF0028F3D0237C284D03B39DF848
:1023F000070094F8C630DBB9237884F8C730082882
:1024000004F1C90228D004F1C801FFF7BFFA20B9CE
:1024100040F6FB612D20FDF77BFE94F8C83043F0B9
:10242000020384F8C8301A4904F1BE0006F04DFAE0
:102430002B68062204265A701E702046FFF752FEB3
:1024400094F84020E16B286806F0E0F928682E71C6
:1024500001F034F80020BCE72868034613F8031B9A
:10246000C1F3801184F8C810D0F80310C4F8C91063
:102470009B889380D7E7074B1B6823B1984780F070
:102480000100C0B2A5E71846A3E700BFA00B0020DB
:102490001789000070000020F8B504460F4619B3F4
:1024A00000F12805284606F030FCA0B963881A0719
:1024B0002ED5284606F040FC0646284606F025FCA8
:1024C000301AC0B206F048FC444A936803442846D8
:1024D000936006F0F6FB284606F0F8FB00F074FE69
:1024E0002179252000F07AFD3C4D94F85E20286883
:1024F0000023037043706388103B0D2B5ED8DFE828
:1025000003F0595D550C5D405D5D5D5D5D5D5D4059
:102510002046BDE8F840FFF72BBE0623437020237A
:1025200003702046FFF7DEFD638823F008039BB2AB
:10253000152B05D094F83820616B286806F057F900
:10254000286800F0BBFF032321792B71002000F0E5
:1025500041FE064607B9E86063881B0704D506F00C
:10256000F8FB0644C4F8E0606388103B0D2B30D8BC
:10257000DFE803F0322F29292F292F2F2F2F2F2F7C
:102580002F290C2343702123037042B104F15F0112
:1025900006F016F90121286806F022F9C1E704F1D6
:1025A000580106F00DF994F85710F4E7062303706C
:1025B0004370B6E7022303700623F9E740F2266171
:1025C0002D20FDF7A5FD21790120BDE8F84000F0A0
:1025D000C5BF40F6AA41F3E7F8BD00BFA00B00203D
:1025E00038B54388102B044604D1BDE8384001219A
:1025F000FFF752BF0B4DAB7C23B100F067FA4020D0
:1026000000F092FF286800F059FF608810F0040085
:1026100002D1217900F0A2FF002000F061FF012328
:102620002B7138BDA00B0020024B0121D869FFF7A8
:1026300033BF00BFA00B002010B5134CA37C1BB10F
:1026400000F07EFF00F05CFAE06905F004FD70B177
:102650002379E069012B0FD12379226A03F18043AA
:10266000D268013BBDE8104052F823301847E069BA
:10267000BDE81040FFF77CBD2379022BECD040F67B
:1026800043312D20FDF744FDA00B002010B5094873
:10269000037903F0FF0453B918222146043004F0F3
:1026A000B7FD00F04DFF00F02BFA204610BD0C24C2
:1026B000FBE700BFA00B002010B5094C00232371DD
:1026C0002060FFF7E3FF20B140F2F6212D20FDF757
:1026D0001FFD236A13B940F2F921F7E710BD00BFCF
:1026E000A00B0020014B024A1A627047A00B002089
:1026F000B42900002DE9F041067DB31EDBB2012BA9
:1027000004468CBF4FF000084FF001087EB3B71E9F
:1027100018BF0127012B36D800F1580190F8570057
:1027200006F022F8082805462DD0FFF707F958BB18
:10273000657784F81C8084F85070FFF721F905460E
:1027400006F0EAFB174BA5FB03351B1845EB01050B
:102750000022C4E9123584F85E2011462046FFF7B6
:10276000D3FC70B940F293412D20FDF7D1FC3746E0
:10277000082504F151010020FEF7C6FF0028D7D13B
:102780000020BDE8F0810825022EF2D0E37E002B68
:10279000F6D0D4F81530C4F85130B4F81930A4F894
:1027A0005530C5E740420F00F0B5464E327985B04E
:1027B000044602F0FF0312B90278FF2A04D140F662
:1027C000A9112D20FDF7A4FC3382B3607371B3719E
:1027D00080F879303C4B00933C4B01933C4B029387
:1027E000336A68465B68039300F060FE00F022FCE9
:1027F00000F0A6FE00F084F9364800F0BFFC04F1BA
:102800002805354800F04CFE284606F05AFA2846BE
:1028100006F05CFA00F0D8FC2179252000F0DEFB00
:1028200094F9120000F0A4FC04F13401206B05F0CF
:102830007BFA04F13C010746206B05F09CFA054643
:1028400017B194F82430C3B90DB194F82550237F03
:1028500013B963885B0709D5D4E912126FF00043FE
:102860009A4208BFB1F1FF3F09D185B93068033002
:10287000FFF7A4F8B07405B0F0BD0125E7E706F056
:102880004BFBD4E91223904271EB0303EDD30122F9
:1028900005EA02012046FFF737FC68B1FFF770F840
:1028A000054606F039FB0D4BA5FB03351B1845EB20
:1028B0000105C4E91235D9E7002DD7D040F6DE1165
:1028C0007FE700BFA00B002039260000E1210000B7
:1028D0008D220000D6BE898E5555550040420F000E
:1028E000F7B50446FFF760FF00212046FFF7D4FD4F
:1028F00004F1680005F005FF236F0BB101221A6097
:102900006388DB0721D50023114E256ACDE900330A
:10291000FF23F37405F10A076846FEF7D1F8A0B962
:10292000009CA542F8D06A7A607A3B4604F10A011D
:1029300005F0EFFE0028EFD0A378F374D4F803007D
:102940007061044BB4F807209A8003B0F0BD00BF5B
:10295000A00B0020B40B0020024BD8611B6A1B683F
:10296000184700BFA00B002043881B0710B5044682
:1029700011D5036A0A493C2280F883201B88A0F8FD
:102980008430FF2380F8A1304FF6FF73A0F8A23007
:102990007A3005F09AFFFF2384F8793010BD00BF2C
:1029A0002F890000C5230000E12500008789000071
:1029B00081890000E1280000B521000029260000DF
:1029C000B0290000A8290000A4290000013802282D
:1029D00008B503D9C3212F20FDF79AFB13290A4B11
:1029E00005D811290CD8102907D0D121F3E71529D2
:1029F000FBD103EB4003D88801E033F8100008BD99
:102A000003EB40039889FAE7103C010038B504460F
:102A1000084694F8483213B10C25284638BD94F87E
:102A20008F30153B012BF7D894F86C3203F0FF057B
:102A3000002BF1D1A1B194F8DE3123B940F6A111F8
:102A40003120FDF765FB074B9968052301F580727E
:102A500001F5E77104F04EF8012384F84832DCE711
:102A60000223FAE7C40B0020064BD3F8000138B16B
:102A7000D3F8040120B1D3F80801B0FA80F040097E
:102A8000704700BF00F00040034B00221A705A70DC
:102A900010229A70704700BFDC0B002070B506460C
:102AA000022014460D4600F0B5F8064B01221A70BC
:102AB000054B033CC3F81045C3F80865C3F804553B
:102AC00070BD00BFDC0B002000F0004008B5022004
:102AD00000F0A0F8084B01221A70084B0022C3F83E
:102AE0000021C3F80421C3F8082103F580334FF413
:102AF0000002C3F8042508BDDC0B002000F00040F4
:102B00000D4A08B513787BB10C4B4FF40001C3F8A4
:102B10000815FFF7A9FF60B101235370084BD3F8E4
:102B20000034937000231370BDE80840002000F0CB
:102B300071B850701023F4E7DC0B002000F0014066
:102B400000F000400A4B1A786AB10A4BD3F8002112
:102B50005AB1D3F8040120B1D3F80801B0FA80F0DB
:102B60004009C0B27047587870470220704700BFD4
:102B7000DC0B002000F0004008B5074B1A783AB192
:102B8000FFF772FF30B1054BD3F80004C0B208BDA7
:102B90009878FCE71020FAE7DC0B002000F00040FA
:102BA000024B00221A705A709A707047DF0B002097
:102BB000064B1A782AB1064A0649C2F808150022BF
:102BC0001A7000225A709A70704700BFDF0B002005
:102BD00000F001400000020208B50B4B4FF4004228
:102BE000C3F88020BFF34F8FBFF36F8F074B0022D6
:102BF000C3F80025C3F80025FFF7DAFF044B4FF4B4
:102C00000002C3F8082508BD00E100E000F0004024
:102C100000F0014038B5144C0023C4F80035C4F866
:102C200000350546FFF7C4FF104B4FF40002012D9D
:102C3000C3F8082503D0022D08D085B938BD02237A
:102C4000C4F800350A4BC4F81435F7E70321C4F87B
:102C500000150749C4F81415C3F80425EEE78221CE
:102C60003D20FDF755FA00BF00F0004000F00140A4
:102C7000E40B0020024B00221A809A701A717047F0
:102C8000F00C002038B5144D95F841200346084655
:102C900022B940F611013E20FDF73AFA6BB9012A3C
:102CA000EC6B95F8401005D100F0CEFD2044AB6AE6
:102CB000C01A38BD06F071F8F8E7012B0AD1012AD5
:102CC000EC6B95F8401002D100F0B0FDEEE706F095
:102CD0006FF8EBE70020EAE7F00C002008B5094B9D
:102CE000012883F82000084B06D0022808D040F6BF
:102CF0002A513E20FDF70CFA0322C3F8102508BD27
:102D00000422FAE7F00C00200010004008B5144B34
:102D100093F84D30D90721D59A0711D5114BD3F827
:102D2000002242F00102C3F80022D3F8503503F02C
:102D3000F603022B12D140F2FE513E20FDF7E8F9D6
:102D40005B070BD5084B094AC3F8AC25A3F5B8338C
:102D5000D3F8403113B140F20561EEE708BD00BF82
:102D6000F00C00200010004000F00140081000406E
:102D700007B50B4A01AB92F9212000F0A9FD9DF99E
:102D8000040000F04BFD9DF8050000F015FE20B199
:102D900040F2CF513E20FDF7BBF903B05DF804FBD4
:102DA000F00C002008B503460F4863B92831C16014
:102DB0000E4900F0E9FD0130012814D940F22671D6
:102DC0003E20FDF7A5F9012B0AD12931C160074941
:102DD00000F0E0FD0130012805D94FF4E661EFE78E
:102DE00040F23471ECE708BD28000020303C0100BF
:102DF00008B50C4B9B78012B09D100F0D1FD0130B7
:102E000001280ED940F662013E20FDF781F9022B20
:102E100007D100F0CBFD0130012802D940F668014E
:102E2000F2E708BDF00C0020044B03441A7E044B6B
:102E3000C3F80825C3F85405704700BF303C0100B3
:102E40000010004038B50D460446FFF747FF2846FE
:102E5000FFF7EAFF29462046FFF78AFF04F01AF839
:102E600090B10A494FF08053D1F88825D3F8203328
:102E7000022C0CBFC3F30663C3F3062322F4FE4205
:102E800042EA0323C1F8883538BD00BF0010004076
:102E900010B50C46FFF722FF2046FFF7C5FF0E4B8B
:102EA0005A78012A03D1D8782146FFF761FF0B4CED
:102EB000D4F8003243F48873C4F8003203F0EAFF18
:102EC00040B903F0F7FF28B9D4F8683543F4C023BC
:102ED000C4F8683510BD00BFF00C002000100040A1
:102EE00010B560220021194804F092F9FFF7C2FEE4
:102EF00003F086FF60B124221548FF2104F088F911
:102F00004FF080430022C3F8082EC3F8102E10BDE6
:102F100003F080FF0028EED103F086FF0028EAD1FD
:102F200003F0A2FF08B14022E6E703F093FF044656
:102F30000028F8D106483822FF2104F069F94FF043
:102F40008043C3F8084EC3F8104EE0E7F00C0020B1
:102F5000000E0040024B0344187E00F516607047D7
:102F6000303C0100094A936A906B92F84010C01AF5
:102F7000074B03EB81031A6CDB6C801A03F2F3132B
:102F80004FF47A72B3FBF2F3C01A7047F00C0020D2
:102F9000303C010008B50F4A92F84010012906D0D4
:102FA000022914D040F2A7213E20FDF7B1F840F6E7
:102FB000B830936B926A9B1A074A02EB8102126C3B
:102FC0009B1A4FF47A72B0FBF2F0184408BD4FF42C
:102FD000FA60EEE7F00C0020303C010008B5134B1E
:102FE000012983F84C0006D002291BD040F2E521CC
:102FF0003E20FDF78DF800230D4A43F4801340F086
:10300000007043F4847340F44030C2F81435C2F8C1
:103010001805D2F8503503F0F703032B05D14FF410
:103020003F71E5E74FF08073E6E708BDF00C002044
:1030300000100040474B022270B5C3F88020BFF358
:103040004F8FBFF36F8F444C0023C4F8FC3F012324
:10305000C4F8FC3F03F02EFF28B1D4F83C3743F40A
:103060008063C4F83C3703F0E9FE58B1D4F83C372C
:1030700023F0004323F0FF0343F0004343F09603A3
:10308000C4F83C3703F006FF334C38B1D4F840376E
:1030900023F47F4343F4B053C4F840372F4BC4F8B4
:1030A000783700F099FC38B14FF08053D3F83033C3
:1030B000591C18BFC4F84C374FF01023264C1B6E18
:1030C0005A1C09D0D4F88C251B0403F47F0322F486
:1030D0007F021343C4F88C3540F20313C4F834352F
:1030E0001F4D40F25B63C4F838350123C4F8303516
:1030F00085F820300323C4F8103540F20123C4F8CA
:1031000050360226174BC4F80062187C00F06AFCA7
:10311000154B4FF04062C3F804250023A5F840305A
:10312000EB6385F84D30114BD3F84035AB6202F0BC
:10313000AFFB084B1022C5E90C01C3F88061C4F84D
:1031400004231E602B6E03B19847BDE8704000F069
:103150000FBC00BF00E100E0001000402C0000891F
:10316000F00C00202800002000F00140008000400A
:10317000014B83F821007047F00C0020034B020E36
:103180000002C3F82425C3F81C0570470010004056
:1031900038B5044600680A4DFFF7F0FF094B626836
:1031A000C3F83C25237A85F82230617AA07AFFF7AC
:1031B00015FF607AFFF792FDE37A85F8213038BD7C
:1031C000F00C002000100040014B83F822007047F3
:1031D000F00C0020F8B5244E96F84D30DA0705467D
:1031E0000F4604D440F259713E20FCF791FF1F4C6A
:1031F000D4F8002243F0020342F00102C4F8002296
:1032000086F84D3000BB96F822103846FFF71AFEBC
:10321000174A0123B370D3642360154BD3F84C4590
:1032200028462146FFF7BEFDB06A241ACDB91149E0
:1032300001EB47074FF47A71B7F8580000F5FA70C0
:10324000B0FBF1F02044F8BD0128E6D196F8221039
:103250003846FFF71DFE0223B370054BDD64656041
:10326000DBE704F12900EEE7F00C0020001000403D
:1032700000800040303C0100F8B53C4C0D4616463D
:10328000074600284ED1104694F82210FFF7DAFDC9
:1032900022780123A3709A42354B4FEA46061E441A
:1032A00030D1B6F85E304FF47A7203F5FA73B3FB9F
:1032B000F2F3ED1AA16A2F4A2F4E304B0D44C6F897
:1032C0004055C2F8A835636C43F4002363644FF49F
:1032D0000023C2F804352378002B3AD194F84D30FE
:1032E00043F0020384F84D30FFF710FD0123F3642F
:1032F000D6F84C25954233D80022C6F84025204AFE
:103300001361F8BDB6F858304FF47A7103F5FA73CB
:10331000B3FBF1F3ED1A002ACCD1164B184AC3F8CF
:10332000AC25C7E701280FD194F822101046FFF70B
:10333000AFFD0223A3702378012BBBD0293D002BC6
:10334000B8D10C4B0F4AEAE740F2C9713E20FCF7B6
:10335000DFFE012BC8D194F84D3043F00403C1E7E0
:1033600029463846BDE8F840FFF71CBDF00C0020A8
:10337000303C010000F001400080004040810040EE
:103380000010004004100040224B13B510222249C7
:10339000D3F80443C3F808230222C1F88021C3F8FC
:1033A00000221E4A002182F84D101D4A4FF4602071
:1033B000C2F80805D3F85025D2B204F01004DAB1EF
:1033C000FF228DF807200122C3F810111A619DF821
:1033D000072012B1D3F810213AB19DF807305BB93C
:1033E00040F651013E20FCF793FE9DF80720013A7C
:1033F000D2B28DF80720EAE7FFF7FAFC054900236F
:10340000C1F81031FFF736FC14B11023C1F80433B2
:1034100002B010BD0010004000E100E0F00C002000
:1034200000F0014038B51A4D0024C5F84845C5F8EC
:103430004445C5F84045C5F84C45FFF7A5FF00F0E9
:103440009DFA144B14495A6C42F04462C1F80825A5
:10345000C3E90E445C641C76104BC5F84845022253
:10346000C5F84445C5F84045C5F84C45C5F8484140
:10347000C5F84441C5F84041C5F84C41C3F8802027
:10348000BFF34F8FBFF36F8FC3F8802138BD00BFEC
:1034900000800040F00C002000F0014000E100E05E
:1034A000014BC3F83C0570470010004010B50FC831
:1034B000014C84E80F0010BD540D0020064BC3F8EA
:1034C0000405064B93F84D20986442F0010283F8FE
:1034D0004D20FFF71BBC00BF00100040F00C002087
:1034E00010B50F4C034694F8410094F840100222A6
:1034F000012822764FF0960094F820200CD100F09D
:10350000B1F9084AE0610023C2F84431E36BE16994
:103510000B44C2F8443510BD00F0BEF9F1E700BF1E
:10352000F00C002000800040044BC3F86005D3F885
:10353000002242F04002C3F8002270470010004011
:10354000054BD3F8002222F04002C3F800220022EB
:10355000C3F86025704700BF0010004008B50D4B50
:103560000246D97008460021197082B901225A70AA
:103570009A78022A0DD193F82210FFF7F9FB064A38
:10358000D2F8003243F48873C2F8003201E002221C
:103590005A7008BDF00C0020001000402DE9F843DF
:1035A000924D934C0123EB64A36AD5F84C7594F8C3
:1035B0004C90FF1A02F0E0FE0026C4E91406A7654D
:1035C000FFF716FC8B4B626CC3F808258A4A6664C9
:1035D000D2F8003223F48E7323F00103C2F80032D4
:1035E000237E84F84D6023B1D5F844319B1B18BF6E
:1035F0000123A178012938D1D2F80C31002B0CBF5E
:103600000025082515F00B0F7B4B04D1D3F81021B2
:103610000AB145F010050022C3F80021C3F80C21BF
:10362000C3F81021C3F80421C3F8082105F01803DA
:10363000102B03D1012908BF45F020056B4B66789C
:10364000D3F84825E263D3F84435A36394F82030D7
:1036500084F8403084F84110EEB9FFF70BFB267672
:10366000EF0761D5636E98478EE0022911D1624A57
:10367000D2F80C01D2F8002400280CBF0025022546
:10368000D20758BF45F00405002BBBD045F001051B
:10369000B8E70025B6E715F0110F21D12379B6F16F
:1036A000010818BF4FF00108012B26781CD0022B0F
:1036B0002FD09BBB96214046FFF7E4FA0146FFF767
:1036C000D9FA012E07D13B378F422AD8474B2670B3
:1036D0000022C3F84021E2784046FFF7CDFD01E02B
:1036E000FFF752FE0026BBE74448FFF751FD94F870
:1036F000413023B94FF4EA613E20FCF709FD012B6C
:1037000004D1FFF747FC61690144D8E7FFF72AFCC1
:10371000F9E73A48FFF73CFD6169D0E740F63E2102
:10372000EAE7354B1E619BE7A80745D503F0B2FBDE
:10373000E8B903F0BFFBD0B92F4BD3F85034D9010F
:1037400015D51A0705D013F0F00F02D013F4706FDF
:103750000DD1294AC3F304410129D2F8542406D1DA
:10376000012A04D0C3F34253022B7FF67BAFA36C34
:103770005B784B4588BF45F0040585F00400A36ED7
:103780003146C0F380009847A378022B12D1237EE4
:1037900083B1022B154A1DD1E36BE1690B44C2F8DA
:1037A0004435636C43F480036364124B4FF480022E
:1037B000C3F80425BDE8F88315F0280F06D085F07E
:1037C0002001E36EC1F340113046DCE7EB06DBD5A8
:1037D000236F48E7012B02D040F61E418CE7E369D6
:1037E000E16B8B42DBD840F61F4185E7008000404B
:1037F000F00C002000F0014000100040F80C002008
:10380000024B03EB8003186C704700BF303C010093
:10381000014B53F8200070477C3C0100024BC0B2C2
:10382000C3F80C05704700BF00100040054B33F88B
:10383000113002384FF47A7203F2E733B3FBF2F33C
:1038400018447047A03C0100054B33F811304FF489
:103850007A7203F57A73B3FBF2F31844704700BF32
:10386000A03C010038B51D460A4B33F8111003EB9C
:10387000820305359C6821444FF47A7301F6B73111
:1038800003FB00141046B4FBF3F4FFF7B9FF2C441C
:10389000204438BDA03C010070B5064608461546D8
:1038A000FFF7B6FF094A02EB850293684FF47A727C
:1038B00003F6B73302FB06331C1A2846B4FBF2F4B6
:1038C000FFF79EFF0530204470BD00BFA03C010003
:1038D0002DE9F74F244C074698460D46164600F052
:1038E000A3F82378BB42814611D16378AB420ED155
:1038F00094F90230B3420AD1E378834207D1A38816
:10390000A8F8003094F9060003B0BDE8F08F781EE7
:10391000C0B203280ED8DFF854C00DF107031CF81D
:1039200000003246294600F085F8824638B13D2134
:10393000752002E040F25F410620FCF7E9FB2846D3
:103940009DF907B0FFF706FB53460246414658462D
:1039500000F038F8B8F80030A071A38027706570C7
:10396000A67084F80390CDE740000020B43C01002D
:10397000014B1B685B68184774000020014B1B68F3
:103980009B68184774000020014B1B681B6918478F
:1039900074000020014B1B685B691847740000200D
:1039A000014B1B689B69184774000020014B1B6882
:1039B000DB69184774000020014B1B68DB6A18475D
:1039C0007400002010B4034C2468E468A44610BCC2
:1039D000604700BF74000020014B1878704700BF9B
:1039E0004012002000220F4938B50446134644FA1D
:1039F00002F0C007D5B248BF581C02F1010244BF13
:103A0000CD54C3B2042AF2D1064DC3F10402042BF3
:103A1000D2B24FF0FF0188BF0022E81803F0F8FB94
:103A20002C7138BD4C120020014B187D704700BF2F
:103A3000680D0020042810B511D883B104280CBFEC
:103A400010242824A1420AD2064C54F8200018B1B0
:103A500041568A42A8BF0A461A70002010BD6FF076
:103A60001500FBE7680D002030B50346114890F9BA
:103A70001C209A4219DD90F924209A4217DA9A1AEA
:103A8000846AA05C0C4A15569D420DD00E32002966
:103A900018BF01309442C0B206D129B1013BDBB25C
:103AA000012B01D80130C0B230BD0D20FCE7002051
:103AB000FAE700BF680D0020B83C010008B5054BCF
:103AC00093F91C30984203DAFFF7CEFF024B1B56E6
:103AD000184608BD680D0020B83C010010B51C4C0C
:103AE00094F82C3073B9012384F82C3003F09CF93E
:103AF00048B1184BA362D823236284F824300823EA
:103B0000A361237710BD03F0A5F90028F1D103F0DC
:103B1000ABF90028EDD103F069F938B10E4BA3627F
:103B2000D823236284F824300423E9E703F068F9FA
:103B30000028F3D103F06EF90028EFD103F07EF9ED
:103B40000028EBD14FF4DF71742002F01FFF00BF9B
:103B5000680D0020F33C0100C63C01004FF080429C
:103B6000012353600023C2F80031014A13707047EB
:103B7000950D0020014B01221A707047950D002011
:103B80004FF08043D3F8003123B9034B187800F08D
:103B9000010070470120FAE7950D002070B50A4D2D
:103BA000012604462E70FFF7EBFF30B94FF080433B
:103BB0006E706C60C3F8046370BD002CFCD0A0472D
:103BC00000236B60F8E700BF980D0020024B002235
:103BD0001A705A705A607047980D002010B5034C47
:103BE000208100F091FB608110BD00BF980D002086
:103BF000014B9889704700BF980D0020014B188930
:103C0000704700BF980D0020014B5889704700BFD6
:103C1000980D002008B509B3F8B14FF0FF331A46EC
:103C2000E0FB01320E498A4204D94FF4EA716D205B
:103C300002F0ACFE180D40EA0230C3F30F134FF24E
:103C40002441B0FBF1F203EB0040064B03FB1200F2
:103C5000B0FBF1F040EA0240013008BD0846FCE745
:103C60003F420F00000024F410B5EFF3108472B649
:103C7000064A937B0133DBB29373937B012B01D113
:103C800005F0E3F804B962B610BD00BF980D00203E
:103C900038B5FFF7E9FFFFF773FF094C4FF0804598
:103CA00040B105F0FCF801232B610423E3730023EA
:103CB000237438BD0323E3730123C5F80433F6E707
:103CC000980D002010B5EFF3108472B6094A937B6B
:103CD00023B940F2F1116D2002F058FE937B013BB5
:103CE000DBB29373937B0BB9FFF738FF04B962B66D
:103CF00010BD00BF980D002038B5124C637CC3B9CD
:103D0000A37CB3B1227C013B9A4212DAFFF738FF61
:103D1000054602F0B1FFA37C012B82BF237C013357
:103D2000237455B16369C31A0133022B09D935B124
:103D30006061BDE83840FFF7ABBFA369F3E7A0615E
:103D4000F7E738BD980D002073B51B4D6B7C63B948
:103D5000E86900F0030005F092F830B1EFF310834A
:103D600072B6EA7B1AB103B962B602B070BD012225
:103D7000EA7303B962B64FF080430822C3F8082300
:103D80004FF42073ADF80630BDF80640A4B2631EB0
:103D90009BB2ADF80630002CF6D14FF080460748B4
:103DA000C6F80C4105F0CFF885F82140FFF770FF09
:103DB0000823C6F80433D8E7980D0020B80D00207A
:103DC0002DE9F041384C94F82230002B69D04FF0A7
:103DD0008043D3F80071D3F8046157B10122C3F8CE
:103DE000082363782BB16368002565700BB1984791
:103DF00065604EB14FF080430022C3F804210222D7
:103E0000C3F80823FFF7A0FF4FF080462748D6F8F5
:103E10000C8194F82150EDB205F099F820B140F2F0
:103E20008D216D2002F0B2FD47B1E37B032B05D15C
:103E30000423E37305F033F801233361B8F1000F75
:103E400016D04FF080430022C3F80C21E37B042BF3
:103E500002D040F2AB21E4E703F010F8C0B14FF01C
:103E600080430022C3F8342C0223E373FFF72AFFB8
:103E70004DB1002384F82130E37B022B01D1FFF701
:103E800007FFFFF71FFFBDE8F041084805F06EB8D7
:103E900002F0D4FF0028E2D102F0E6FF0028DED1D4
:103EA000E2E7BDE8F08100BF980D0020B80D0020CA
:103EB00010B5044CE06900F0030004F0E0FF0028B6
:103EC000F8D010BD980D0020F8B5054650B1027825
:103ED000042A07D8437842B9013B1F2B02D88378C4
:103EE000212B07D96FF0150077E0002BFAD18378EA
:103EF000002BF7D1814B0127C3F88070BFF34F8FA0
:103F0000BFF36F8F4FF08046C3F880717C4C4FF049
:103F1000FF33C6F808330023C6F80031C6F8043171
:103F2000C6F80C31A373AB88A38104F093FF08B1EA
:103F30002770A773D6F80C24D6F80C34D20303D517
:103F4000DF0701D5FFF716FE4FF4AF60FFF746FE1F
:103F50002B78A97863740022E261A1742274042B87
:103F60004ED8DFE803F005033B494B000123E36132
:103F700004F077FF00284ED004F07AFFE36903F0E5
:103F80000303984247D1AB79002B3ED1FFF790FF56
:103F9000A37C6BB12B785BB9FFF7F2FD054602F00D
:103FA0006BFE6FF00043002D00F0A580C4E905030F
:103FB0004FF08043D3F80C24D3F80C34D20303D54C
:103FC000DB0701D5FFF7D6FD4C4A01230020E07343
:103FD00084F82230C2F880311360F8BDFFF744FE48
:103FE0004FF08043D3F80C14D3F80C24CE03F9D54A
:103FF000D007F7D50223BAE7424BB8E7424BB6E702
:1040000040F2FD316D2002F0C1FC4FF080430222EE
:10401000C3F80423BCE74FF080430122DA6000229A
:10402000C3F80421E269C3F8182502F0DFFE10B3DB
:104030004FF080534FF08042D3F84432C3F3423301
:10404000C2F83C3502F0D2FE10B34FF0804301229B
:10405000C3F84C254FF0804301229A600222C3F836
:104060000423AA79002A93D1D3F8042391071CD4FE
:104070004FF46D71C6E702F0C3FE0028D8D102F0FC
:10408000C9FE0028D4D102F0D9FE0028D0D1D9E74A
:1040900002F0B6FE0028D8D102F0BCFE0028D4D130
:1040A00002F0CCFE0028D0D1D4E7184A1669116975
:1040B00041F010011161D3F8043106F010060BB97C
:1040C00004F061FF4FF08047D7F8043183B1FFF768
:1040D000EFFE26B90D4A136923F0100313614FF068
:1040E00080430222C3F808230022C3F804214FE7CB
:1040F00004F047FFE8E7C4E9053059E700E100E0D4
:10410000980D0020010002000100030000ED00E016
:10411000064B1A7810B5044632B901221A70FFF71F
:10412000A3FD2046FFF73AFD002010BDBB0D002087
:1041300010B5054C23782BB1FFF748FD0023237001
:10414000FFF7C0FD002010BDBB0D0020014B18790A
:10415000704700BFC00D0020054B1A79824283BF13
:104160001B6800EB400003EB00100020704700BF0D
:10417000C00D002043F60952C0F3080302FB03F30D
:10418000400A03F5807302FB00F000EB53207047F8
:1041900043F6095CC0F3080210B50CFB02F2C0F351
:1041A0004E24030E43EA01230CFB04F0090E02F532
:1041B00080724FEA411C00EB52205A01B2EB030E11
:1041C0004CEAD36C6CEB01044FEA841C4FEA8E126C
:1041D000B2EB0E024CEA9E6C6CEB040C4FEACC0C7A
:1041E0004CEA527CD200D31841EB0C01DA03C9032C
:1041F000801841EA534141F1000110BD430B48F2E0
:10420000376C0CFB03F34FEA134C00B5104B43F62D
:10421000095E0EFB1C0000FB03F35B0D0EFB03FEAF
:1042200003EB4C230EF5745C0CF1080CB0EB5C2F27
:1042300008D80EF5807EA0EB5E20C0B20B60107037
:104240005DF804FB013300200B6010705DF804FB87
:104250006F0C0100F8B5274DA94246D8264E274FCE
:10426000450F45EAC105A6FB0514C0F34F31A40B69
:1042700001EB054107FB1411A6FB0151890B41EA33
:1042800004411F4C04FB110448F2376C600B0CFB1B
:1042900000F04FEA104C43F6095E1A480EFB1C452D
:1042A00005FB00F0400D0EFB00FE00EB4C200EF570
:1042B000745C0CF1080CB5EB5C2F12D80EF5807E07
:1042C000A5EB5E2E5FFA8EFE069D85F800E00D06DA
:1042D00028184FEA112141F100011860596014605B
:1042E000F8BD01304FF0000EEEE796219B2002F062
:1042F0004DFB00BFFF7F841E83DE1B43000024F4C0
:104300000080841E6F0C0100420B48F2376303FBF0
:1043100002F2120C43F6095C074B0CFB120101FB85
:104320000333013B5B0D0CFB03FC5002B1EB5C2F34
:1043300088BF0130184470476F0C010010B5094A5E
:1043400092F80033202B03D13E21022002F01EFB05
:1043500018214B43D018BDE81040D35840680321C2
:10436000184700BFC80D0020074B4FF0FF32C3F8BD
:1043700008230022C3F84025C3F84021C3F8442590
:10438000C3F84421704700BF008000400C4B0D492A
:104390001B78012B14BF4FF4E0224FF4C022C1F868
:1043A000482318BF0023C1F80823074A99000A448C
:1043B0000021012B42F8041B00D170470123F8E7CC
:1043C0000011002000B0004040B1004070B5EFF394
:1043D000108472B6094A0A4B0025D2F80415D2F8A7
:1043E00004612EB1596801315960C2F80451F4E7F3
:1043F0005B6804B962B6C0E9001370BD00B000404C
:1044000000110020094BD3F80435C01A20F07F4377
:1044100023F001033BB120F07F40B0F5000F8CBFCB
:104420000220002070470120704700BF00B000400C
:1044300008B5124BD3F8042522F00302C3F8042573
:10444000D3F8082542F00302C3F80825102292FA97
:10445000A2F2B2FA82F2092A04DD094840F291314F
:1044600002F08AFAC3F810250122DA60054B4FF4F6
:104470008072C3F880211A6008BD00BF0080004030
:104480001545010000E100E0114B4FF40062C3F854
:104490008020BFF34F8FBFF36F8FC3F880210D4B88
:1044A00001225A609A60D3F80425002AFBD10A49F8
:1044B000C3F808134FF4E021C3F84813C3F84021B0
:1044C000C3F84421C3F84821C3F80421704700BF52
:1044D00000E100E000B000400200070008B50A4B10
:1044E0004FF48072C3F88020BFF34F8FBFF36F8FFC
:1044F0000649C3F8802101204860FFF735FF044BCF
:10450000086100221A7208BD00E100E0008000404E
:104510000011002038B5244CFF234FF0FF32002556
:1045200063724FF0FF33C4E9042325706560FFF721
:10453000D5FFFFF7A9FF1D4A1D4BC2F800524FF4EB
:1045400000611960A0691B4930B901230B60194B48
:104550000222C3F8042338BD174B184CC3F8A845F2
:10456000C3F8AC05C3F85C194FF40021C3F8041577
:104570000521C2F8401501211160D2F8401100292F
:10458000FBD04FF40021C3F8081501215160D16020
:104590000021C2F84011C2F84015C3F8A815C3F8AD
:1045A000AC15C3F8AC15D2E7001100200080004024
:1045B00000E100E000B0004000F001404081004018
:1045C000014BD3E90401704700110020014BD3F8DF
:1045D0000405704700B0004013B56846FFF7F6FECB
:1045E000DDE90004FFF7C6FD024B0021E4FB0301F7
:1045F00002B010BD0080841EB1F1FF3F08BFB0F1D2
:10460000FF3F2DE9F041404C05460E4638D13F4D65
:10461000D5F800317BB33E4E3E4BC6F808354FF01F
:104620000008FFF7B3FE84F80980FFF757FFFFF794
:10463000FFFE394BC5F80081384FC6F8A8354FF456
:104640000023C6F8AC75C6F8043504F067FCD5F84D
:1046500000312BB10123C5F800817B60FB60F4E7DA
:10466000013041F100010223C4E904012370FF235A
:104670006370BDE8F08104F051FCC51C41F10006F7
:10468000D4E90473B34208BFAF42F2D0204B214AB1
:10469000C3F80825FFF77AFE1C4A4FF4803125F055
:1046A0007F480023C2F808134046C2F84813C2F8F6
:1046B0004031FFF7A7FE20B140F202316C2002F03A
:1046C00065F9C2F84085C2F844132378012B06D15E
:1046D00027F07F473846FFF795FE0128FAD00023E0
:1046E0006372FFF7FBFEFFF7A3FE094A01234FF0B9
:1046F00000412370C2F8041504226270034AC4E921
:104700000456C2F84833B4E70011002000B000405E
:1047100000F001400000088000B10040008000402F
:10472000012837B508D9041FE4B2022C19D940F288
:104730009D316C2002F02AF9234900F11002012377
:104740009340C1F8083300F5A873002241F82320F4
:104750001E4B81005A5053F820300093009B03B049
:1047600030BD1B4D2B7893B16A7882420FD1194A24
:104770001949C2F80815012B01D1FFF7AFFE00233C
:104780002B704FF0FF324FF0FF33C5E90423134A7B
:104790004FF48033A340C2F80833C2F8483304F51D
:1047A000A87352F82300FFF72DFE012818BF0C4B09
:1047B00022B24FEA84041CBF00211951084B53F860
:1047C00022300193019BCAE70080004040810040F5
:1047D0000011002000F001400000088000B00040FF
:1047E00040B10040012870B52D4B06D9041FE4B23A
:1047F000022C2DD940F257310BE0D3E90441B1F13D
:10480000FF3F08BFB4F1FF3F06D11B7A23B940F246
:104810002F316C2002F0BAF812B940F23331F8E7C8
:104820002049012300F1100403FA04F4C1F8044301
:1048300000F5A87441F824208B64D1F84855002471
:10484000AA42C1F8484526D8FFF76AFF204670BD46
:10485000197829B15B78834202D140F25331D8E70D
:10486000114B124E22F07F41A20013444FF48035C9
:10487000A5400022C6F808530846C6F848531A60F7
:10488000FFF7C0FD48B904F5A87446F82410C6F82F
:104890000453C6F844530120D9E71046D7E700BFB8
:1048A000001100200080004040B1004000B00040F6
:1048B00010B50A4B0446012210B1C3F8442310BDC1
:1048C000C3F84823FFF70AFE054B4FF0FF304FF0C7
:1048D000FF31C3E904011C70F1E700BF00B00040E4
:1048E00000110020F8B5164D164E00244FF4803705
:1048F000D5F8043307FA04F21A4212D056F82430DD
:104900007BB1002346F8243004F5A87355F8230042
:10491000FFF778FD28B1201DC5F80823C0B201F0CB
:104920000DFC0134032CE3D1054BD3F8042132B143
:104930000022C3F80421044A536801335360F8BDD0
:1049400000B0004040B100400011002038B5224CBA
:10495000637AFF2B39D0237883B10122022B227294
:104960002DD11E4B4FF40022C3F8082500232370DD
:104970004FF0FF324FF0FF33C4E90423184DD5F850
:1049800004339A0309D5D5F8443133B14FF40033D9
:10499000C5F80833012001F0D1FBD5F80433DB035F
:1049A00019D5D5F84031B3B14FF48033C5F8083389
:1049B000FF2363720020BDE8384001F0BFBB022333
:1049C00060782370FFF7ACFED8E7054BD3F80433CB
:1049D0000BB10720EFE738BD0011002000F00140C7
:1049E000008000402DE9F04F93B01C460492CDE9C1
:1049F0000201FFF7E5FD182301910646B84908209A
:104A000004EB440213FB0404631801EBC2020832F6
:104A100065581F7BD3F8048093F80D9005970FCA53
:104A20000CAC25F07F4A84E80F005046FFF7A2FB4C
:104A3000AC4B7C1C9842044400F288819C4200F3F9
:104A40009380002C55DBFFF79BF8B9F1010F8346EB
:104A500008D0A54FD7E90223B3F1FF3F08BFB2F159
:104A6000FF3F4BD004F03AFA019B0690B3F1FF3FB1
:104A700008BFB6F1FF3F03D0B54278EB030378D20D
:104A8000029B0322EB1A934269DBBBF1000F00F09B
:104A9000E88000230793029BB5EB030B039B68EBB5
:104AA000030704F01BFA0930C217834577EB0203B2
:104AB00080F0DB80049B012B00F0E180079B002B42
:104AC0005AD1019BB3F1FF3F08BFB6F1FF3F53D06E
:104AD000721B63EB0803042A73F1000180F2288142
:104AE000012A73F100033ADADDF81CB026F07F4AA0
:104AF00052E004F1F45404F59024A4E70028B1D165
:104B000004F0ECF9019B0690B3F1FF3F08BFB6F14A
:104B1000FF3F00F0A380B54278EB0303C0F09E8016
:104B20003B7C002B069B14BF00221A463346EB1A2F
:104B30009A4214DC01230793D7E90232B2F1FF3F16
:104B400008BFB3F1FF3FA6D00699EB1A68EB02024B
:104B50008B4272F100039ED2B9F1010F9BD0002469
:104B6000204613B0BDE8F08F04F1614404F5F7046A
:104B700069E73346002285E728464146FFF73CFDBA
:104B80004FF0000BB8F1FF3F08BFB5F1FF3F00F059
:104B9000E2802E46CDF804805046FFF7EBFA534BE7
:104BA000221A9A420DD3001B98427CD34D4B9A4255
:104BB00000F2B380984240F2D880C0F1614202F521
:104BC000F702D3170020FFF70DFE04460028C6D0D9
:104BD000454FB9F1010FD7E9022366D0BBF1000FB1
:104BE00040F08880B3F1FF3F08BFB2F1FF3F00F013
:104BF000A6800120FFF75CFE3B7C002B40F09280FA
:104C00006A1E68F100030620FFF7ECFD002842D081
:104C1000B9694FF0804200230B60C2F80835059B4C
:104C20008DF83C3000238DF8403008934FF0FF3270
:104C30004FF0FF33CDE90C58CDE90A238DF83D90B4
:104C400008AE0FCE2A4D0FC50FCE0FC596E8030054
:104C500085E80300204613B0BDE8F08F029BC21C1C
:104C600065E7214FCDF81CB066E7B9F1010B284686
:104C7000414618BF4FF0010BFFF7BEFC82E7019BD6
:104C8000B3F1FF3F08BFB6F1FF3F73D026F07F4A74
:104C90004FF0000B80E7BA694FF080410123C1F863
:104CA00008351360BBE742428BE7B3F1FF3F08BF13
:104CB000B2F1FF3F24D1BBF1000F9DD0069BF21A49
:104CC000019B4FF0050063F10003FFF78BFD002807
:104CD00046D03B7C002B93D101233B7490E700BF6F
:104CE000C80D0020FF7F841E201100200040420FCD
:104CF000D0100020B3F1FF3F08BFB2F1FF3FDDD07D
:104D000004F0E4F84FF0FF324FF0FF33C7E902231D
:104D1000BBF1000F3FF470AFD0E702F1F45202F59F
:104D200090224EE70520FFF7FBFC00233B7467E76A
:104D300028464146DDF81CB0FFF75EFC22E704F090
:104D4000C3F804F0EBF8C7E9020152E740F20F4163
:104D5000702001F01BFE40F21671702001F016FE6B
:104D600040F22121702001F011FE40F2CF7170203D
:104D700001F00CFE40F27A61702001F007FE00BFE6
:104D80002DE9F04F8D4F7C7C04EB44033B4483B012
:104D90005D78202D48D08A4BE6B26400002B00F0ED
:104DA0008980884BDFF82092002B5FD005EB4612FC
:104DB00007EB420A4FEA46189AF81C30013BDBB277
:104DC000052B34D8814A12F803B0BBF1080F2ED05E
:104DD000AFF30080EFF3108372B634443C449AF88A
:104DE0001D206270A278AA4204BF2022A27013B9CB
:104DF000AFF3008062B6A84405EB450509EBC50298
:104E000007EB4808506859F835300122594688F8B0
:104E10001C2098477C7C04EB44033B44E6B25D785D
:104E2000202D4FEA4404C1D103B0BDE8F08F40F219
:104E30004561702001F0AAFD62B6A84405EB450566
:104E400009EBC50207EB4808506859F835300122D4
:104E5000594688F81C2098477C7C04EB44033B446B
:104E6000E6B25D78202D4FEA4404DDD005EB461212
:104E700007EB420A4FEA46189AF81C30013BDBB2B6
:104E8000052BD4D8514A12F803B0BBF1080FCED08D
:104E9000AFF30080EFF3108372B634443C449AF8C9
:104EA0001D206270A278954204BF2022A270002BC0
:104EB000C3D1C1E7434BDFF814B1DFF80CA14FF0C9
:104EC0002009002B4FD005EB461207EB42024FEAB8
:104ED0004618137F013BDBB2052BA8D81BF8031043
:104EE0000829A4D0EFF3108372B634443C44527FB7
:104EF0006270A278954208BF84F80290002B52D0CD
:104F0000A84407EB480805EB45050AEBC5025AF82B
:104F100035305068012288F81C2098477C7C04EBCF
:104F200044033B44E6B25D78202D4FEA4404CAD1E5
:104F30007AE762B6A84405EB45050AEBC50207EB24
:104F4000480850685AF83530012288F81C209847E4
:104F50007C7C04EB44033B44E6B25D78202D4FEAB1
:104F600044043FF461AF05EB461207EB42024FEAFF
:104F70004618137F013BDBB2052B3FF658AF1BF8F9
:104F8000031008293FF453AFEFF3108372B6344493
:104F90003C44527F6270A278954208BF84F8029028
:104FA000002BC7D1C5E70191AFF3008062B6A844DA
:104FB000019905EB450507EB4808A6E720110020FD
:104FC0000000000000000000C80D0020243D01008A
:104FD0002DE9F04F85B0DFF80C81019301EB41031F
:104FE0004FF0200C18F8034003916445924682F874
:104FF00000C073D04B01DFF8F09006469B4610E0EE
:10500000727B012A02D0427D012A57D00BEB0403A8
:1050100008EB43038AF800405B7F202BA4465DD059
:105020001C4604EB440009EBC000D0E90323876869
:105030003568716813EB070E42F10002754571EB9C
:1050400002024FEA4403DBD21D46019B83F800C0F5
:10505000039B4FEA431B281909EBC0003768B3686C
:10506000D0F808A07268C168DB1942F100029A45C5
:1050700071EB020310D3437D012B02D0737B012B14
:1050800003D0012005B0BDE8F08F03F027FFAAEBA5
:10509000070701308742F4DA019A254409EBC50578
:1050A0001470A97DB27B0BEB0403914208EB430320
:1050B00010D95C7F202CE4D06500CCE7029303F08C
:1050C0000DFFED1B01308542A0DA029B9AF800C06B
:1050D0001D46BAE7002005B0BDE8F08F019B1C70AB
:1050E000CFE700BF20110020C80D00202DE9F04FB0
:1050F00083B00C4615461E469DF83070FFF704F944
:1051000022686368451946F10006954276EB030371
:1051100042D3DFF88C8005E05D4576EB09033BD395
:10512000C4E900B90DF107030DF106023946204626
:10513000FFF74EFF88BB9DF8073003EB430308EBF6
:10514000C303D3E902A01A691AF1030B40F100006E
:1051500012EB0B0B627B40F10009012ADCD05B7D76
:10516000012BD9D103F0BAFEABEB0A030130834225
:10517000D2DA9DF8073003EB430308EBC303D3E90E
:1051800002B903F0ABFE013010EB0B0B49EBE079F9
:105190005D4576EB0903C3D2002003B0BDE8F08F74
:1051A000C80D00202DE9F04715461C4612782F7ACD
:1051B00095F809C088B00023E360C4E90033A77301
:1051C0009DF8408084F80DC00646A360E2730F4648
:1051D000002A3AD1FEF7DCFFD5E9042C3C4BC3187A
:1051E00041F1000E9A427CEB0E030AD3013E47F1D7
:1051F000FF37C4E900674FF47A73A36008B0BDE8D5
:10520000F087263041F1000182427CEB0103EDD3AF
:10521000501E04F10C036CF10001009304AA06ABCC
:10522000FFF718F8049B686802330DF10F0205A917
:105230001844FEF7E3FFDDE9053207999B1A23F0D6
:105240007F43C4E90021A360D8E7224804F10C029F
:1052500006A9FEF7D3FF204B1B78202B24D01F4933
:105260000B69D1E90521083342F1000A13EB01096A
:105270004AF1000A6B68207B1844023005AA04F149
:105280000801C4E9009AFEF7B9FF2869CDF800804B
:1052900032463B462146FFF729FF0028AED1C4E93C
:1052A000006708B0BDE8F087637B16F1080947F195
:1052B000000A012BDED0FEF763FC0028DAD103F0F0
:1052C0000DFE10EB090399464AF1000AD2E700BF30
:1052D0000040420FFF7F841EC8100020D010002025
:1052E0002DE9F04700EB4003344DDFF8D480EC5C4F
:1052F00006464700FFF76AF94FF0200C4FEA461EBA
:1053000004EB440108EBC1010EEB0403D1F808A043
:105310000A69AAEB000929F07F49B9F5000F05EBEE
:1053200043030DD812EB0A02121A22F07F42B2F5A3
:10533000000F05D8BCF1200F0AD12046BDE8F08748
:105340005B7F202BA4461C46DAD1BCF1200FF4D0A1
:105350000CEB4613BA1905EB430315F802805B7F8B
:10536000AB54710144464FF0040E0B1905EB430397
:1053700022469445204683F81CE05C7FF5D1BB199A
:105380002B440A4493F802E0BEF1200F5FFA8EFC32
:1053900018BF8C443E4418BF05EB4C0C05EB420291
:1053A000354408BF83F801804FF0200318BF8CF804
:1053B0001D80A87053772046BDE8F087201100209B
:1053C000C80D00202DE9F04101EB41034A4DEE5C90
:1053D000202E82B00C4680464FEA410740D1474B11
:1053E0000BB1AFF3008003F099FDAB7C0191202B52
:1053F0000AD0434BD3E904E210F1020C41F100035F
:10540000E64572EB030330D3202E0AD042463346E2
:10541000FFF7E8FA00283DD00220AE7402B0BDE8E4
:10542000F081D5E90223B3F1FF3F08BFB2F1FF3F9E
:105430001FD12B7C43BB0420FFF772F903F07CFDE6
:105440000020FFF735FAA9694FF080422020A874A8
:10545000002301200B60C2F8083502B0BDE8F081DE
:105460000846FFF73DFF8642B9D0002002B0BDE8F4
:10547000F08103F02BFD4FF0FF334FF0FF32C5E911
:1054800002232B7C002BD6D00520FFF749F90023FF
:105490002B74D0E73A1906EB441305EB430315F8D8
:1054A00002C05B7FAB5461016246042013468A1838
:1054B00005EB42029E421077527FF7D13A192A44F7
:1054C0003C449678F0B2202E18BF4018194418BFFB
:1054D00005EB400005EB4101254418BF80F81DC0D5
:1054E000AB704FF000004FF0200308BF82F801C0FE
:1054F0004B7702B0BDE8F0812011002000000000D1
:10550000D010002038B5164A164D4FF0FF304FF03E
:10551000FF310023C2E90201C5E90201202142F264
:105520002000A970136082F82030A9741C462880DE
:105530006B742B7405F11C0202F814300134202C1A
:10554000FAD1094801F0D6FB084B094A1C701070CB
:1055500001F0C0FCA861FEF7DDFF0123EB7438BD4C
:10556000D010002020110020814D0000C810002024
:10557000F81000202DE9F04F83B003F0CFFCDFF8E6
:10558000688206460C4603F0D7FC4FF0FF334FF01D
:10559000FF32C8E9022398F82030D3B9D8F8103088
:1055A000D8F81820D8F814109048033341F10001BE
:1055B0009B1802F5DF62A0FB02024FEA922241F142
:1055C00000019B1841F100019E4274EB010380F041
:1055D000FB804FF0FF304FF0FF31FFF70DF8844AAA
:1055E00092F800B0BBF1200F00F0E980814D20233C
:1055F0001370AB746B7C0022C8F8002003EB4302ED
:105600005FFA83F9AF5C5B00202F00930AD0DFF8CC
:10561000E8A107EB47030AEBC3037A00D97D012910
:1056200000F0A880009BDFF8D4A103EB09062E440C
:105630004FEA49173478202C04D04846FFF750FE33
:105640008442F7D1BAF1000F01D0AFF3008003F02C
:1056500065FCAB7C202B09D0D8E9042310F1020EA5
:1056600041F1000C724573EB0C03E3D3202C34D0D2
:1056700023460122FFF7B6F9002852D0AC7407EB9D
:105680000B0305EB43031A7F022A1BD1009A4A44FD
:105690002A44062119779178CBB220291CBFDB1947
:1056A00005EB43035F4418BF83F81DB0009B08BFA0
:1056B00082F801B04B442B4405EB470783F802B056
:1056C00020237B77FF23AB71009B4B441D446B78F9
:1056D000202B60D103B0BDE8F08FD5E90223B3F1F0
:1056E000FF3F08BFB2F1FF3F07D003F0EFFB4FF0E1
:1056F000FF324FF0FF33C5E902232B7CA3BB04200C
:10570000FFF70EF803F018FC0020FFF7D1F8A969A5
:105710004FF0804200232020A8740B60C2F80835A7
:10572000ADE73B1905EB430330785B7F33700246EE
:1057300004211346BA1805EB42029C421177527FAE
:10574000F7D1B178B370CAB220291CBFD21905EBCA
:1057500042023B4405EB430318BF50774FF0200251
:1057600008BF70705A7765E70520FEF7D9FF002360
:105770002B74C4E75B7D012B14D1033644F1000484
:1057800017440AEBC70ADAE90223B242A34128BF51
:10579000CAE9026446E71A4B187803B0BDE8F04F37
:1057A00001F0D4BA0192FEF7EBF9019A0028E4D196
:1057B00003F094FB8619019A44F10004E0E740F2FB
:1057C000B121702001F0E2F8094B0B4A1B78182137
:1057D00001FB03F3D01807214068D358984740F2E3
:1057E000A621702001F0D2F8D01000209300DC92A6
:1057F000C810002020110020C80D0020000000006B
:10580000F810002038B50C46054603F06DFB114931
:105810004B7C01F11C0C5FFA83FE0CEB831C002314
:1058200002E00133202B13D01CF81320D8B2002A39
:10583000F7D1094A03EB4E1E03EB430301EB4E0184
:1058400042F8335002EBC30301220A775C6038BD93
:10585000184638BD20110020C80D00201F2808D888
:105860000A494B7C00EB431301EB43031A7F012AE7
:1058700001D0002070474B7C00EB431301EB430346
:105880004FF0000C104683F81CC070472011002018
:1058900010B5054CD4E90401FEF77AFC237F0133EF
:1058A000181841F1000110BDD01000200378002B22
:1058B00040F0D7802DE9F04F6F4A5368C3F30803D7
:1058C00089B08146002B40F0B8806C4E6C4FDFF8F9
:1058D000B4B106F11C0A27B1002140F23740AFF302
:1058E0000080757CEDB24FF00003B37127B1002149
:1058F00040F23C40AFF300800AEB851EBEE80F008B
:105900006C1C04F001080AEB881CACE80F00BEE830
:105910000F00ACE80F00BEE80F00ACE80F009EE8F7
:105920000F0044468CE80F002DB227B100214FF440
:105930007370AFF3008005EB450504EB4404731965
:10594000725B9B7832533444A37057B100214FF4FB
:105950007470AFF3008027B1002140F24140AFF3F3
:10596000008003F0DBFACDF8008004AB4A46044621
:105970000D46FFF717FC27B100214FF48960AFF304
:105980000080414B1B78202B3FD0DBF81030DBF838
:105990001420DBF81810083342F100025B1842F1C2
:1059A0000002DDE90401984271EB020CCDF80080A1
:1059B00022D3364822462B4604A9FFF797FB98B11D
:1059C000DDE90401FEF7E4FB9DF81C3001331B18F0
:1059D00041F10001C9F81030C9F8141027B10021B5
:1059E00040F25B40AFF30080B379002B7FF473AFDC
:1059F000012009B0BDE8F08FCDE9043204A92246A8
:105A00002B462248FFF772FBDAE79DF81D1014F1D0
:105A1000080345F100020129C3D0CDE90232FEF7A7
:105A2000AFF8DDE902320028BBD103F057FA029B40
:105A3000039AC31842F10002B3E7103B59B20029A0
:105A400011DB01F1604101F5614191F8000340096A
:105A50000028CED0094E0A4FDFF828B006F11C0A04
:105A600039E70020704703F00F03043B1344187E0E
:105A700040090028EED1BCE700ED00E02011002035
:105A800000000000D0100020C81000200040420F8D
:105A90002DE9F04FAC4A53688FB0C3F30803834637
:105AA0000491002B40F0628108230393049B1B7830
:105AB000012B00F23D82A54E26B1002140F2295073
:105AC000AFF300800023A24C05934FF0010926B1EB
:105AD000002140F23650AFF30080B9F1000F04D13D
